{
  "_format": "hh-sol-artifact-1",
  "contractName": "TokenBank",
  "sourceName": "contracts/TokenBank.sol",
  "abi": [
    {
      "inputs": [
        {
          "internalType": "string",
          "name": "name_",
          "type": "string"
        },
        {
          "internalType": "string",
          "name": "symbol_",
          "type": "string"
        },
        {
          "internalType": "address",
          "name": "nftContract_",
          "type": "address"
        }
      ],
      "stateMutability": "nonpayable",
      "type": "constructor"
    },
    {
      "anonymous": false,
      "inputs": [
        {
          "indexed": true,
          "internalType": "address",
          "name": "from",
          "type": "address"
        },
        {
          "indexed": false,
          "internalType": "uint256",
          "name": "amount",
          "type": "uint256"
        }
      ],
      "name": "TokenDeposit",
      "type": "event"
    },
    {
      "anonymous": false,
      "inputs": [
        {
          "indexed": true,
          "internalType": "address",
          "name": "from",
          "type": "address"
        },
        {
          "indexed": true,
          "internalType": "address",
          "name": "to",
          "type": "address"
        },
        {
          "indexed": false,
          "internalType": "uint256",
          "name": "amount",
          "type": "uint256"
        }
      ],
      "name": "TokenTransfer",
      "type": "event"
    },
    {
      "anonymous": false,
      "inputs": [
        {
          "indexed": true,
          "internalType": "address",
          "name": "from",
          "type": "address"
        },
        {
          "indexed": false,
          "internalType": "uint256",
          "name": "amount",
          "type": "uint256"
        }
      ],
      "name": "TokenWithdraw",
      "type": "event"
    },
    {
      "inputs": [
        {
          "internalType": "address",
          "name": "account",
          "type": "address"
        }
      ],
      "name": "balanceOf",
      "outputs": [
        {
          "internalType": "uint256",
          "name": "",
          "type": "uint256"
        }
      ],
      "stateMutability": "view",
      "type": "function"
    },
    {
      "inputs": [
        {
          "internalType": "address",
          "name": "account",
          "type": "address"
        }
      ],
      "name": "bankBalanceOf",
      "outputs": [
        {
          "internalType": "uint256",
          "name": "",
          "type": "uint256"
        }
      ],
      "stateMutability": "view",
      "type": "function"
    },
    {
      "inputs": [],
      "name": "bankTotalDeposit",
      "outputs": [
        {
          "internalType": "uint256",
          "name": "",
          "type": "uint256"
        }
      ],
      "stateMutability": "view",
      "type": "function"
    },
    {
      "inputs": [
        {
          "internalType": "uint256",
          "name": "amount",
          "type": "uint256"
        }
      ],
      "name": "deposit",
      "outputs": [],
      "stateMutability": "nonpayable",
      "type": "function"
    },
    {
      "inputs": [],
      "name": "memberToken",
      "outputs": [
        {
          "internalType": "contract MemberToken",
          "name": "",
          "type": "address"
        }
      ],
      "stateMutability": "view",
      "type": "function"
    },
    {
      "inputs": [],
      "name": "name",
      "outputs": [
        {
          "internalType": "string",
          "name": "",
          "type": "string"
        }
      ],
      "stateMutability": "view",
      "type": "function"
    },
    {
      "inputs": [],
      "name": "owner",
      "outputs": [
        {
          "internalType": "address",
          "name": "",
          "type": "address"
        }
      ],
      "stateMutability": "view",
      "type": "function"
    },
    {
      "inputs": [],
      "name": "symbol",
      "outputs": [
        {
          "internalType": "string",
          "name": "",
          "type": "string"
        }
      ],
      "stateMutability": "view",
      "type": "function"
    },
    {
      "inputs": [],
      "name": "totalSupply",
      "outputs": [
        {
          "internalType": "uint256",
          "name": "",
          "type": "uint256"
        }
      ],
      "stateMutability": "pure",
      "type": "function"
    },
    {
      "inputs": [
        {
          "internalType": "address",
          "name": "to",
          "type": "address"
        },
        {
          "internalType": "uint256",
          "name": "amount",
          "type": "uint256"
        }
      ],
      "name": "transfer",
      "outputs": [],
      "stateMutability": "nonpayable",
      "type": "function"
    },
    {
      "inputs": [
        {
          "internalType": "uint256",
          "name": "amount",
          "type": "uint256"
        }
      ],
      "name": "withdraw",
      "outputs": [],
      "stateMutability": "nonpayable",
      "type": "function"
    }
  ],
  "bytecode": "0x60806040523480156200001157600080fd5b5060405162001bba38038062001bba833981810160405281019062000037919062000345565b82600190816200004891906200062a565b5081600290816200005a91906200062a565b5033600460006101000a81548173ffffffffffffffffffffffffffffffffffffffff021916908373ffffffffffffffffffffffffffffffffffffffff1602179055506103e860056000600460009054906101000a900473ffffffffffffffffffffffffffffffffffffffff1673ffffffffffffffffffffffffffffffffffffffff1673ffffffffffffffffffffffffffffffffffffffff16815260200190815260200160002081905550806000806101000a81548173ffffffffffffffffffffffffffffffffffffffff021916908373ffffffffffffffffffffffffffffffffffffffff16021790555050505062000711565b6000604051905090565b600080fd5b600080fd5b600080fd5b600080fd5b6000601f19601f8301169050919050565b7f4e487b7100000000000000000000000000000000000000000000000000000000600052604160045260246000fd5b620001b6826200016b565b810181811067ffffffffffffffff82111715620001d857620001d76200017c565b5b80604052505050565b6000620001ed6200014d565b9050620001fb8282620001ab565b919050565b600067ffffffffffffffff8211156200021e576200021d6200017c565b5b62000229826200016b565b9050602081019050919050565b60005b838110156200025657808201518184015260208101905062000239565b60008484015250505050565b600062000279620002738462000200565b620001e1565b90508281526020810184848401111562000298576200029762000166565b5b620002a584828562000236565b509392505050565b600082601f830112620002c557620002c462000161565b5b8151620002d784826020860162000262565b91505092915050565b600073ffffffffffffffffffffffffffffffffffffffff82169050919050565b60006200030d82620002e0565b9050919050565b6200031f8162000300565b81146200032b57600080fd5b50565b6000815190506200033f8162000314565b92915050565b60008060006060848603121562000361576200036062000157565b5b600084015167ffffffffffffffff8111156200038257620003816200015c565b5b6200039086828701620002ad565b935050602084015167ffffffffffffffff811115620003b457620003b36200015c565b5b620003c286828701620002ad565b9250506040620003d5868287016200032e565b9150509250925092565b600081519050919050565b7f4e487b7100000000000000000000000000000000000000000000000000000000600052602260045260246000fd5b600060028204905060018216806200043257607f821691505b602082108103620004485762000447620003ea565b5b50919050565b60008190508160005260206000209050919050565b60006020601f8301049050919050565b600082821b905092915050565b600060088302620004b27fffffffffffffffffffffffffffffffffffffffffffffffffffffffffffffffff8262000473565b620004be868362000473565b95508019841693508086168417925050509392505050565b6000819050919050565b6000819050919050565b60006200050b62000505620004ff84620004d6565b620004e0565b620004d6565b9050919050565b6000819050919050565b6200052783620004ea565b6200053f620005368262000512565b84845462000480565b825550505050565b600090565b6200055662000547565b620005638184846200051c565b505050565b5b818110156200058b576200057f6000826200054c565b60018101905062000569565b5050565b601f821115620005da57620005a4816200044e565b620005af8462000463565b81016020851015620005bf578190505b620005d7620005ce8562000463565b83018262000568565b50505b505050565b600082821c905092915050565b6000620005ff60001984600802620005df565b1980831691505092915050565b60006200061a8383620005ec565b9150826002028217905092915050565b6200063582620003df565b67ffffffffffffffff8111156200065157620006506200017c565b5b6200065d825462000419565b6200066a8282856200058f565b600060209050601f831160018114620006a257600084156200068d578287015190505b6200069985826200060c565b86555062000709565b601f198416620006b2866200044e565b60005b82811015620006dc57848901518255600182019150602085019450602081019050620006b5565b86831015620006fc5784890151620006f8601f891682620005ec565b8355505b6001600288020188555050505b505050505050565b61149980620007216000396000f3fe608060405234801561001057600080fd5b50600436106100a95760003560e01c806370a082311161007157806370a082311461015457806381983cd9146101845780638da5cb5b146101a257806395d89b41146101c0578063a9059cbb146101de578063b6b55f25146101fa576100a9565b806306fdde03146100ae57806318160ddd146100cc5780632e1a7d4d146100ea5780635cb543841461010657806365513fe514610124575b600080fd5b6100b6610216565b6040516100c39190610e0d565b60405180910390f35b6100d46102a8565b6040516100e19190610e48565b60405180910390f35b61010460048036038101906100ff9190610e94565b6102b2565b005b61010e6105a0565b60405161011b9190610f40565b60405180910390f35b61013e60048036038101906101399190610f99565b6105c4565b60405161014b9190610e48565b60405180910390f35b61016e60048036038101906101699190610f99565b61060d565b60405161017b9190610e48565b60405180910390f35b61018c610656565b6040516101999190610e48565b60405180910390f35b6101aa610660565b6040516101b79190610fd5565b60405180910390f35b6101c8610686565b6040516101d59190610e0d565b60405180910390f35b6101f860048036038101906101f39190610ff0565b610718565b005b610214600480360381019061020f9190610e94565b610911565b005b6060600180546102259061105f565b80601f01602080910402602001604051908101604052809291908181526020018280546102519061105f565b801561029e5780601f106102735761010080835404028352916020019161029e565b820191906000526020600020905b81548152906001019060200180831161028157829003601f168201915b5050505050905090565b60006103e8905090565b60008060009054906101000a900473ffffffffffffffffffffffffffffffffffffffff1673ffffffffffffffffffffffffffffffffffffffff166370a08231336040518263ffffffff1660e01b815260040161030e9190610fd5565b602060405180830381865afa15801561032b573d6000803e3d6000fd5b505050506040513d601f19601f8201168201806040525081019061034f91906110a5565b1161038f576040517f08c379a00000000000000000000000000000000000000000000000000000000081526004016103869061111e565b60405180910390fd5b3373ffffffffffffffffffffffffffffffffffffffff16600460009054906101000a900473ffffffffffffffffffffffffffffffffffffffff1673ffffffffffffffffffffffffffffffffffffffff160361041f576040517f08c379a00000000000000000000000000000000000000000000000000000000081526004016104169061118a565b60405180910390fd5b60003390506000600460009054906101000a900473ffffffffffffffffffffffffffffffffffffffff1690506000600660008473ffffffffffffffffffffffffffffffffffffffff1673ffffffffffffffffffffffffffffffffffffffff168152602001908152602001600020549050838110156104d2576040517f08c379a00000000000000000000000000000000000000000000000000000000081526004016104c99061121c565b60405180910390fd5b6104dd828486610b77565b83600660008573ffffffffffffffffffffffffffffffffffffffff1673ffffffffffffffffffffffffffffffffffffffff168152602001908152602001600020600082825461052c919061126b565b925050819055508360036000828254610545919061126b565b925050819055508273ffffffffffffffffffffffffffffffffffffffff167f68577e4d693c1b056a60bc4e39438810239a0bfe64869c4eb7e3baebb5f65634856040516105929190610e48565b60405180910390a250505050565b60008054906101000a900473ffffffffffffffffffffffffffffffffffffffff1681565b6000600660008373ffffffffffffffffffffffffffffffffffffffff1673ffffffffffffffffffffffffffffffffffffffff168152602001908152602001600020549050919050565b6000600560008373ffffffffffffffffffffffffffffffffffffffff1673ffffffffffffffffffffffffffffffffffffffff168152602001908152602001600020549050919050565b6000600354905090565b600460009054906101000a900473ffffffffffffffffffffffffffffffffffffffff1681565b6060600280546106959061105f565b80601f01602080910402602001604051908101604052809291908181526020018280546106c19061105f565b801561070e5780601f106106e35761010080835404028352916020019161070e565b820191906000526020600020905b8154815290600101906020018083116106f157829003601f168201915b5050505050905090565b60008060009054906101000a900473ffffffffffffffffffffffffffffffffffffffff1673ffffffffffffffffffffffffffffffffffffffff166370a08231336040518263ffffffff1660e01b81526004016107749190610fd5565b602060405180830381865afa158015610791573d6000803e3d6000fd5b505050506040513d601f19601f820116820180604052508101906107b591906110a5565b116107f5576040517f08c379a00000000000000000000000000000000000000000000000000000000081526004016107ec9061111e565b60405180910390fd5b3373ffffffffffffffffffffffffffffffffffffffff16600460009054906101000a900473ffffffffffffffffffffffffffffffffffffffff1673ffffffffffffffffffffffffffffffffffffffff16036108fc578060035460056000600460009054906101000a900473ffffffffffffffffffffffffffffffffffffffff1673ffffffffffffffffffffffffffffffffffffffff1673ffffffffffffffffffffffffffffffffffffffff168152602001908152602001600020546108ba919061126b565b10156108fb576040517f08c379a00000000000000000000000000000000000000000000000000000000081526004016108f290611311565b60405180910390fd5b5b600033905061090c818484610b77565b505050565b60008060009054906101000a900473ffffffffffffffffffffffffffffffffffffffff1673ffffffffffffffffffffffffffffffffffffffff166370a08231336040518263ffffffff1660e01b815260040161096d9190610fd5565b602060405180830381865afa15801561098a573d6000803e3d6000fd5b505050506040513d601f19601f820116820180604052508101906109ae91906110a5565b116109ee576040517f08c379a00000000000000000000000000000000000000000000000000000000081526004016109e59061111e565b60405180910390fd5b3373ffffffffffffffffffffffffffffffffffffffff16600460009054906101000a900473ffffffffffffffffffffffffffffffffffffffff1673ffffffffffffffffffffffffffffffffffffffff1603610a7e576040517f08c379a0000000000000000000000000000000000000000000000000000000008152600401610a759061118a565b60405180910390fd5b60003390506000600460009054906101000a900473ffffffffffffffffffffffffffffffffffffffff169050610ab5828285610b77565b82600660008473ffffffffffffffffffffffffffffffffffffffff1673ffffffffffffffffffffffffffffffffffffffff1681526020019081526020016000206000828254610b049190611331565b925050819055508260036000828254610b1d9190611331565b925050819055508173ffffffffffffffffffffffffffffffffffffffff167f20b3fc91390f6ceba342f697a9490734680fd3556633f40efa146f1dbe79d05f84604051610b6a9190610e48565b60405180910390a2505050565b600073ffffffffffffffffffffffffffffffffffffffff168273ffffffffffffffffffffffffffffffffffffffff1603610be6576040517f08c379a0000000000000000000000000000000000000000000000000000000008152600401610bdd906113d7565b60405180910390fd5b6000600560008573ffffffffffffffffffffffffffffffffffffffff1673ffffffffffffffffffffffffffffffffffffffff16815260200190815260200160002054905081811015610c6d576040517f08c379a0000000000000000000000000000000000000000000000000000000008152600401610c6490611443565b60405180910390fd5b8181610c79919061126b565b600560008673ffffffffffffffffffffffffffffffffffffffff1673ffffffffffffffffffffffffffffffffffffffff1681526020019081526020016000208190555081600560008573ffffffffffffffffffffffffffffffffffffffff1673ffffffffffffffffffffffffffffffffffffffff1681526020019081526020016000206000828254610d0b9190611331565b925050819055508273ffffffffffffffffffffffffffffffffffffffff168473ffffffffffffffffffffffffffffffffffffffff167fd0ed88a3f042c6bbb1e3ea406079b5f2b4b198afccaa535d837f4c63abbc4de684604051610d6f9190610e48565b60405180910390a350505050565b600081519050919050565b600082825260208201905092915050565b60005b83811015610db7578082015181840152602081019050610d9c565b60008484015250505050565b6000601f19601f8301169050919050565b6000610ddf82610d7d565b610de98185610d88565b9350610df9818560208601610d99565b610e0281610dc3565b840191505092915050565b60006020820190508181036000830152610e278184610dd4565b905092915050565b6000819050919050565b610e4281610e2f565b82525050565b6000602082019050610e5d6000830184610e39565b92915050565b600080fd5b610e7181610e2f565b8114610e7c57600080fd5b50565b600081359050610e8e81610e68565b92915050565b600060208284031215610eaa57610ea9610e63565b5b6000610eb884828501610e7f565b91505092915050565b600073ffffffffffffffffffffffffffffffffffffffff82169050919050565b6000819050919050565b6000610f06610f01610efc84610ec1565b610ee1565b610ec1565b9050919050565b6000610f1882610eeb565b9050919050565b6000610f2a82610f0d565b9050919050565b610f3a81610f1f565b82525050565b6000602082019050610f556000830184610f31565b92915050565b6000610f6682610ec1565b9050919050565b610f7681610f5b565b8114610f8157600080fd5b50565b600081359050610f9381610f6d565b92915050565b600060208284031215610faf57610fae610e63565b5b6000610fbd84828501610f84565b91505092915050565b610fcf81610f5b565b82525050565b6000602082019050610fea6000830184610fc6565b92915050565b6000806040838503121561100757611006610e63565b5b600061101585828601610f84565b925050602061102685828601610e7f565b9150509250929050565b7f4e487b7100000000000000000000000000000000000000000000000000000000600052602260045260246000fd5b6000600282049050600182168061107757607f821691505b60208210810361108a57611089611030565b5b50919050565b60008151905061109f81610e68565b92915050565b6000602082840312156110bb576110ba610e63565b5b60006110c984828501611090565b91505092915050565b7f6e6f74204e4654206d656d626572000000000000000000000000000000000000600082015250565b6000611108600e83610d88565b9150611113826110d2565b602082019050919050565b60006020820190508181036000830152611137816110fb565b9050919050565b7f4f776e65722063616e6e6f742065786563757465000000000000000000000000600082015250565b6000611174601483610d88565b915061117f8261113e565b602082019050919050565b600060208201905081810360008301526111a381611167565b9050919050565b7f416e20616d6f756e742067726561746572207468616e20796f757220746f6b6560008201527f6e42616e6b2062616c616e636521000000000000000000000000000000000000602082015250565b6000611206602e83610d88565b9150611211826111aa565b604082019050919050565b60006020820190508181036000830152611235816111f9565b9050919050565b7f4e487b7100000000000000000000000000000000000000000000000000000000600052601160045260246000fd5b600061127682610e2f565b915061128183610e2f565b92508282039050818111156112995761129861123c565b5b92915050565b7f416d6f756e74732067726561746572207468616e2074686520746f74616c207360008201527f7570706c792063616e6e6f74206265207472616e736665727265640000000000602082015250565b60006112fb603b83610d88565b91506113068261129f565b604082019050919050565b6000602082019050818103600083015261132a816112ee565b9050919050565b600061133c82610e2f565b915061134783610e2f565b925082820190508082111561135f5761135e61123c565b5b92915050565b7f5a65726f20616464726573732063616e6e6f742062652073706563696669656460008201527f20666f722027746f272100000000000000000000000000000000000000000000602082015250565b60006113c1602a83610d88565b91506113cc82611365565b604082019050919050565b600060208201905081810360008301526113f0816113b4565b9050919050565b7f496e73756666696369656e742062616c616e6365210000000000000000000000600082015250565b600061142d601583610d88565b9150611438826113f7565b602082019050919050565b6000602082019050818103600083015261145c81611420565b905091905056fea2646970667358221220a22a0564ab640518d6794ad8057814f6c026163024e2be7f8c197312bbbc8d3264736f6c63430008120033",
  "linkReferences": {},
  "deployedLinkReferences": {}
}